:020000040800F2
:100000007807002099010008A1010008A301000859
:10001000A5010008A7010008A901000800000000D0
:10002000000000000000000000000000AB0100081C
:10003000AD01000800000000AF010008B101000898
:10004000B3010008B3010008B3010008B3010008C0
:10005000B3010008B3010008B3010008B3010008B0
:10006000B3010008B3010008B3010008B3010008A0
:10007000B3010008B3010008B3010008B301000890
:10008000B3010008B3010008B3010008B301000880
:10009000B3010008B3010008B3010008B301000870
:1000A000B3010008B3010008B3010008B301000860
:1000B000B3010008B3010008B3010008B301000850
:1000C000B3010008B3010008B3010008B301000840
:1000D000B3010008B3010008B3010008B301000830
:1000E000B3010008B3010008B30100084D3A00084D
:1000F000B301000800F002F800F03FF80AA090E811
:10010000000C82448344AAF10107DA4501D100F0D2
:1001100034F8AFF2090EBAE80F0013F0010F18BF60
:10012000FB1A43F001031847D8460000F8460000C8
:10013000103A24BF78C878C1FAD8520724BF30C813
:1001400030C144BF04680C607047000000230024E5
:1001500000250026103A28BF78C1FBD8520728BFD7
:1001600030C148BF0B607047642903F0ED86002062
:1001700070471FB51FBD10B510BD03F098FF1146A5
:10018000FFF7F7FF03F0E3FC03F0B6FF03B4FFF75C
:10019000F2FF03BC03F0BAFF094880470948004753
:1001A000FEE7FEE7FEE7FEE7FEE7FEE7FEE7FEE727
:1001B000FEE7FEE704480549054A064B7047000084
:1001C000DB020008F5000008780100207807002015
:1001D00078030020780300200CB5002001900090E7
:1001E0008748006840F001008549086000BF8448E6
:1001F000006800F0020000900198401C01900098F7
:1002000018B90198B0F5A06FF1D17D48006800F0F1
:10021000020010B10120009001E000200090009841
:10022000012859D17748006840F0040075490860FA
:100230000846006840F0020008600846006840F088
:10024000010008606E482430006840F080506C491E
:1002500024310860C8146C49086000BF6A484068CF
:1002600000F010000028F9D16548083000686449A2
:1002700008310860084600680860084600680860A1
:100280000846006820F47D0008600846006840F4D5
:10029000080008605A48006840F0807058490860BB
:1002A00000BF5748006800F000700028F9D054489B
:1002B0000830006820F00300514908310860084602
:1002C000006840F00300086000BF4D480830006837
:1002D00000F00C000C28F8D10CBD10B5484800689F
:1002E00040F4807046490860454808300068474936
:1002F00008404349083108604148006844490840C3
:100300003F4908600846006820F4802008603C48A7
:100310000830006820F47D00394908310860002069
:10032000091D0860FFF758FF4FF000603949086069
:1003300010BD70B500220020002100240023304DA4
:1003400008352D6805F00C0232B1042A10D0082AB5
:1003500012D00C2A39D113E0294D2D1D2D68C5F37B
:1003600042335D1C0126AE40F5032B4E356038E06C
:100370002A4D294E356034E0294D274E356030E056
:100380001F4D08352D6805F470101D4D08352D687A
:1003900005F44001234D05EB90452878012505EB38
:1003A0009151174D08352D6805F4803434B91B4D33
:1003B0004543B5FBF1F5184E356005E0184D454352
:1003C000B5FBF1F5144E35600BE00D4D2D1D2D687C
:1003D000C5F342335D1C0126AE40F5030E4E356079
:1003E00000BF00BF064D08352D68C5F303150E4E3E
:1003F000725D094D2D68D540074E356070BD000017
:1004000000380240003C0240007000400CC0FF88F1
:10041000FEFFFEEE08ED00E0000000200024F400E6
:1004200000127A00040000200D00002000B587B003
:100430000121084600F096FD0121880300F0A3FD8C
:10044000072209212F4800F0E6FB07220A212D4848
:1004500000F0E1FB02208DF8080003208DF8090070
:1004600000208DF80A0001208DF80B004002019059
:1004700001A9244800F046FB4FF4E130039000202E
:10048000ADF81000ADF81200ADF81400ADF818008A
:100490000C20ADF8160003A91B4800F07AFE0122DB
:1004A00040F22551184800F0AFFF0121164800F036
:1004B000F5FE07B000BD70B504460D46E1B2124826
:1004C00000F017FF00BF40210F4800F0C2FF0028D6
:1004D000F9D0204670BD10B5044600BF80210A48FF
:1004E00000F0B7FF0028F9D0E1B2074800F001FFA3
:1004F00000BF4021044800F0ACFF0028F9D020469E
:1005000010BD0000000002400038014010B5044654
:10051000FE48844207D10121401500F067FD00210B
:10052000601500F063FD10BD30B5024600200023C9
:100530005068F74C20400D790C6844EA05242043AC
:1005400050609068F34C2040D1E903542C438D68EF
:100550002C434D7944EA450420439060106B20F011
:10056000F8700C7D641EE4B2234340EA035010632C
:1005700030BD002101600171417181604FF0407117
:10058000C160002101610121017570470146002011
:10059000E14A106820F440300A681043DE4A1060D7
:1005A000704700210160704721B1826842F001026A
:1005B000826003E0826822F001028260704721B10C
:1005C000826842F00402826003E0826822F0040242
:1005D000826070471AB143680B43436002E043688E
:1005E0008B43436070470A460021816821F0F00187
:1005F0001143816070470A4600214168C74B19408A
:100600001143416070478162C26270470A4600210F
:10061000416821F01F0111434160704730B1BE496C
:10062000096841F40001BC4A116005E0BA49096853
:1006300021F40001B84A11607047F0B504460D4638
:10064000002000211D2D11DDE06DA5F11E0606EB39
:100650004607072606FA07F18843A5F11E0606EBB2
:10066000460603FA06F10843E06534E0132D11DD78
:10067000E068A5F1140606EB4607072606FA07F11F
:100680008843A5F1140606EB460603FA06F1084373
:10069000E06020E0092D11DD2069A5F10A0606EBD6
:1006A0004607072606FA07F18843A5F10A0606EB76
:1006B000460603FA06F1084320610CE0606905EB89
:1006C0004507072606FA07F1884305EB450603FAB6
:1006D00006F108436061072A0FDA206C561E06EB0C
:1006E00086071F2606FA07F18843561E06EB860684
:1006F00005FA06F1084320644AE00D2A0FDAE06BA0
:10070000D61F06EB86071F2606FA07F18843D61F79
:1007100006EB860605FA06F10843E06338E0132A83
:1007200011DAA06BA2F10D0606EB86071F2606FA6A
:1007300007F18843A2F10D0606EB860605FA06F1DD
:100740000843A06324E0192A11DA606BA2F11306B2
:1007500006EB86071F2606FA07F18843A2F1130667
:1007600006EB860605FA06F10843606310E0206B8D
:10077000A2F1190606EB86071F2606FA07F1884341
:10078000A2F1190606EB860605FA06F10843206376
:10079000F0BD816841F080418160704701460020D2
:1007A0008A6802F080420AB1012000E00020704710
:1007B00021B1826842F48062826003E0826822F4A0
:1007C00080628260704721B1826842F002028260DA
:1007D00003E0826822F002028260704710B50A4688
:1007E00000210023416821F46041531E41EA433156
:1007F000416010BD21B1426842F40062426003E0F2
:10080000426822F40062426070470146886D80B2FF
:10081000704721B1826842F48072826003E082688E
:1008200022F480728260704721B1826842F40072C3
:10083000826003E0826822F4007282607047F0B543
:10084000044615460020002200261D2911DDE06D1A
:10085000A1F11E0707EB470C072707FA0CF290439C
:10086000A1F11E0707EB470703FA07F21043E06503
:1008700034E0132911DDE068A1F1140707EB470C00
:10088000072707FA0CF29043A1F1140707EB47077B
:1008900003FA07F21043E06020E0092911DD206926
:1008A000A1F10A0707EB470C072707FA0CF2904360
:1008B000A1F10A0707EB470703FA07F2104320618B
:1008C0000CE0606901EB410C072707FA0CF290433A
:1008D00001EB410703FA07F210436061606CC0F35B
:1008E0000156EF1C06F1010CA7EB0C0707EB870C78
:1008F0001F2707FA0CF29043EF1C06F1010CA7EB3F
:100900000C0707EB870701FA07F209E00024014012
:10091000FFFEFFFCFDF7FFC004270140FFFD3FFF86
:1009200010436064F0BD10B50A4600210023416CFD
:1009300021F44011531E41EA0351416410BD08B532
:10094000002300930090009B0B440093009B1A60CF
:1009500008BD0A460021816821F47021114381609D
:1009600070470A460021816821F4401111438160DB
:100970007047816841F48001816070470146002022
:100980008A6802F480020AB1012000E0002070476A
:1009900021B1426842F48062426003E0426822F47E
:1009A00080624260704721B1426842F480524260E6
:1009B00003E0426822F480524260704708B5024664
:1009C00000200090009201F13000009B184400903C
:1009D0000098006880B208BD10B50B460021D9B25E
:1009E000012404FA01F11AB144680C43446002E0A6
:1009F00044688C43446010BD0246002013680B40DD
:100A00000BB1012000E000207047CA43026070472C
:100A100070B502460020002300240B0A5568012609
:100A20008E4005EA060415681D4015B10CB1012081
:100A300000E0002070BD00220A12D343036070471B
:100A400010B504468548844208D10121084600F0CB
:100A5000BCFA0021012000F0B8FA52E0804884423C
:100A600008D10121022000F0B0FA0021022000F09C
:100A7000ACFA46E07B48844208D10121042000F012
:100A8000A4FA0021042000F0A0FA3AE0764884425B
:100A900008D10121082000F098FA0021082000F078
:100AA00094FA2EE07148844208D10121102000F010
:100AB0008CFA0021102000F088FA22E06C48844271
:100AC00008D10121402000F080FA0021402000F0F0
:100AD0007CFA16E06748844208D10121802000F0AA
:100AE00074FA0021802000F070FA0AE06248844223
:100AF00007D10121202000F068FA0021202000F019
:100B000064FA10BDF0B50A4600210023002400BF9E
:100B10003DE0012505FA01F3156805EA03049C424E
:100B200034D105684F000326BE40B54305601579F2
:100B30004E00B5400668354305601579012D02D099
:100B40001579022D16D185684F000326BE40B543A6
:100B5000856055794E00B540866835438560858847
:100B600001268E40B5438580858896798E40B6B241
:100B700035438580C5684F000326BE40B543C56038
:100B8000D5794E00B540C6683543C560491C10296B
:100B9000BFD3F0BD4FF6FF710160002101714171BB
:100BA0008171C171704708B54FF480320092009A8C
:100BB0000A430092009AC261C161009AC261C2698F
:100BC0000092C269009208BD02460020138A0B40C1
:100BD0000BB1012000E0002070470146088A7047F1
:100BE00002460020938A0B400BB1012000E0002058
:100BF00070470146888A7047018370474183704778
:100C00000AB1018300E04183704781827047828A84
:100C10004A4082827047F0B5002300244D07ED0E54
:100C200002FA05F3CE1000F1200555F826504E07C4
:100C3000F70E0F26BE40B543CF1000F1200646F850
:100C40002750CE1000F1200555F8265045EA030440
:100C5000CE1000F1200545F82640F0BD000002400E
:100C60000004024000080240000C02400010024054
:100C700000180240001C024000140240F9480068BD
:100C800040F48070F7490860F64808300068F6497B
:100C90000840F44908310860F2480068F349084008
:100CA000F04908600846006820F480200860ED489C
:100CB0000830006820F47D00EA490831086000200F
:100CC000091D086070470021E64A921C1170114608
:100CD0000870704710B501460022002300204A1119
:100CE000012A02D1DF4C236802E0DE4C3434236851
:100CF00001F01F02012494401C400CB1012000E0CF
:100D0000002010BD38B5002000900024002500BF51
:100D10003120FFF7DFFF05460098401C0090009847
:100D2000B0F5A06F01D0002DF2D03120FFF7D2FF37
:100D300008B1012400E00024204638BDC949C91D7E
:100D40000870704701460020C64A121D106820F442
:100D50006040084310607047C5490862704701460B
:100D60000020C04A121D106820F4F85040EA01200B
:100D700010607047BE49086070470021B94A35329B
:100D80001170114608707047BA490860704710B575
:100D900041EA02030343B34C0A34237010BDB44943
:100DA00008667047B24908677047B2492C3108603D
:100DB000704740EA0102AB4B0B331A707047014693
:100DC0000020A84A0832106820F003000843106091
:100DD0007047A4480830006800F00C0070470146D6
:100DE0000020A04A0832106820F0F000084310608C
:100DF0007047014600209B4A0832106820F4E060EA
:100E000008431060704701460020964A0832106877
:100E100020F4605040EAC10010607047F0B5002136
:100E2000002200230026002400258E4F08373F684B
:100E300007F00C0131B1042912D0082913D00C2974
:100E400037D113E0874F3F1D3F68C7F342356F1C12
:100E50004FF0010C0CFA07FC4FEACC37076036E084
:100E6000854F076033E0854F076030E07D4F0837DE
:100E70003F6807F470127B4F08373F6807F4400360
:100E80007F4F07EB92473A78012707EB9353754F53
:100E900008373F6807F480362EB9774F5743B7FBC2
:100EA000F3F7076004E0754F5743B7FBF3F70760AC
:100EB0000DE06C4F3F1D3F68C7F342356F1C4FF08C
:100EC000010C0CFA07FC4FEACC37076000BF00BFEB
:100ED000644F08373F6807F0F0010909694F7C5CEF
:100EE0000768E74047605F4F08373F6807F4E061F5
:100EF000090A644F7C5C4768E7408760594F0837B0
:100F00003F6807F46051C90A5E4F7C5C4768E74060
:100F1000C760F0BD002100F44032B2F5403F08D177
:100F2000504A116821F0C04100F0C04211434D4ABF
:100F300011604C4A3432126822F44032494B343347
:100F40001A601A46126800F440331A43454B343392
:100F50001A607047474958310860704745495C310D
:100F60000860704739B13F4A1C32126802433D4B5A
:100F70001C331A6006E03B4A1C3212688243394B2C
:100F80001C331A60704739B1364A20321268024366
:100F9000344B20331A6006E0324A20321268824312
:100FA000304B20331A60704739B12E4A2432126810
:100FB00002432C4B24331A6006E02A4A243212687A
:100FC0008243284B24331A60704739B1254A1032C6
:100FD00012680243234B10331A6006E0214A103294
:100FE000126882431F4B10331A60704739B11D4A93
:100FF0001432126802431B4B14331A6006E0194A7C
:10100000143212688243174B14331A60704739B197
:10101000144A183212680243124B18331A6006E061
:10102000104A1832126882430E4B18331A60704708
:1010300039B10C4A2832126802430A4B28331A602D
:1010400006E0084A283212688243064B28331A60A9
:101050007047C9B1034A2C3212680243014B2C334A
:101060001A6016E0003802400CC0FF88FEFFFEEE5A
:1010700000004742800647420024F40000127A0034
:101080001D000020260000201F4A126882431E4BCC
:101090001A60704739B11C4A121D126802431A4B7C
:1010A0001B1D1A6006E0184A121D12688243164B77
:1010B0001B1D1A60704739B1134A1F3A1278024358
:1010C000114B1F3B1A7006E00F4A1F3A12788243F9
:1010D0000D4B1F3B1A7070470B480830006840F0FA
:1010E0008070094908310860704701460020064AAF
:1010F000203A12680A400AB1012000E0002070473F
:1011000001491E39087070472C38024010B504465A
:10111000F748844209D101218803FFF767FF0021C6
:101120004FF48040FFF762FF32E0F248844209D179
:1011300001214804FFF76BFF00214FF40030FFF757
:1011400066FF25E0EC48844209D101218804FFF7BD
:101150005EFF00214FF48020FFF759FF18E0E748B9
:10116000844209D10121C804FFF751FF00214FF447
:101170000020FFF74CFF0BE0E148844208D1012139
:101180000805FFF744FF00214FF48010FFF73FFFF1
:1011900010BD2DE9FF4705460E460024A14600BFBD
:1011A000A046B08900B100BF2C8A24F44054F088D6
:1011B00004432C82AC8941F20C608443B0883189AD
:1011C0000843718908430443AC81AC8A24F4407419
:1011D000B0890443AC826846FFF720FEC4488542CC
:1011E00002D1DDF80C9001E0DDF80890A88900F448
:1011F000004040B109EBC90000EB0910316849001B
:10120000B0FBF1F707E009EBC90000EB091031680A
:101210008900B0FBF1F76420B7FBF0F0040120096E
:10122000642101FB1078A88900F4004040B132200D
:1012300000EBC800B0FBF1F000F00700044308E049
:10124000322000EB08106421B0FBF1F000F00F0039
:1012500004432C81BDE8FF874FF416510160002143
:101260008180C18001810C214181002181817047F1
:1012700010B502460020108A20F470600B884C885C
:1012800023438C882343CC8823431843108210BD0A
:101290000021018041808180C180704721B1828915
:1012A00042F40052828104E082894DF6FF731A40B5
:1012B00082817047028B02F47F420283028B0A43D1
:1012C0000283704721B1828942F40042828103E0A7
:1012D0008289C2F30E028281704721B1828A42F470
:1012E0000062828204E0828A4FF2FF731A40828297
:1012F0007047C1F308028280704701468888C0F3B6
:1013000008007047028A4FF6F0731A400282028A80
:101310000A430282704721B1828942F0020282812F
:1013200004E082894FF6FD731A40828170478289FA
:101330004FF2FF731A40828182890A43828170478B
:10134000028A4FF6DF731A400282028A0A4302823F
:10135000704721B1028A42F48042028204E0028A8C
:101360004BF6FF731A4002827047818941F00101F8
:101370008181704721B1828A42F00802828204E0B2
:10138000828A4FF6F7731A4082827047028BD2B27C
:101390000283028B42EA01220283704721B1828AD2
:1013A00042F02002828204E0828A4FF6DF731A4004
:1013B0008282704721B1828A42F01002828204E068
:1013C000828A4FF6EF731A4082827047828A4FF604
:1013D000FB731A408282828A0A438282704721B15B
:1013E000828A42F00202828204E0828A4FF6FD7312
:1013F0001A40828270471AB1838A0B43838202E0CB
:10140000838A8B4383827047F0B50346002400260D
:101410000025002040F66A17B94200D100BF1846E7
:10142000C1F3421401F01F06012707FA06F5012C4B
:1014300001D10C3004E0022C01D1103000E0143056
:101440001AB107682F43076002E00768AF430760DF
:10145000F0BD02460020B1F5007F00D100BF138827
:101460000B400BB1012000E00020704701F4007236
:10147000B2F5007F00D100BFCA430280704770B54B
:101480000246002400230025002040F66A16B142DF
:1014900000D100BFC1F3421501F01F03012606FA77
:1014A00003F3012D02D19689334006E0022D02D1CB
:1014B000168A334001E0968A33400C12012606FA60
:1014C00004F41688344013B10CB1012000E0002070
:1014D00070BD10B50022002340F66A14A14200D16D
:1014E00000BF0A1201249440A3B2DC43048010BD63
:1014F000003801400044004000480040004C0040DB
:101500000050004032490143324A1160704770B5C3
:10151000002100230F22C4781CB32E4C246804F44D
:10152000E064C4F5E064C4F30721C1F10404E3B24C
:101530000A4144789C40E1B28478144021430C076E
:10154000210E254C05786155047804F01F0501240F
:10155000AC4005786D11AD0005F1E025C5F80041FE
:1015600009E0047804F01F050124AC401B4D067807
:10157000761145F8264070BD194A0A400243154BC2
:101580001B1F1A60704739B1124A121D12680243BC
:10159000104B1B1D1A6006E00E4A121D1268824392
:1015A0000C4B1B1D1A607047042808D14FF0E02136
:1015B000096941F004014FF0E022116107E04FF0AA
:1015C000E021096921F004014FF0E0221161704728
:1015D0000000FA050CED00E000E400E080E100E02E
:1015E00080FFFF1F10B50446F748844209D101214E
:1015F0004805FFF70CFD00214FF40010FFF707FD31
:1016000008E001218805FFF702FD00214FF480006A
:10161000FFF7FDFC10BD2DE9FF4704460D460026EF
:10162000B1460427DFF8A483A6884FF6C0700640B1
:101630006846FFF7F3FBDDF80880E548B8FBF0F0FB
:101640001FFA80F946EA0906A68020884FF6FE7147
:10165000084020800026DF49286888420CD8286886
:101660004000B8FBF0F087B2042F00DA04273E43B5
:1016700009F10100208427E0E8884BF6FF718842D9
:1016800006D1286800EB4000B8FBF0F087B209E013
:10169000286800EBC00101EB0010B8FBF0F087B246
:1016A00047F48047C7F30B0008B947F0010747F438
:1016B000004006434FF4967009FB00F04FF47A7136
:1016C00090FBF1F0401C2084A683208840F00100AC
:1016D000208026884FF6F5300640A888698908439F
:1016E00006432680A889298908432081BDE8FF8711
:1016F00041F288310160002181804BF6FF71C18089
:101700000021018141814FF480418181704721B1E5
:10171000028842F00102028004E002884FF6FE7364
:101720001A400280704721B1028842F48072028020
:1017300004E002884FF6FF631A400280704721B12F
:10174000028842F40072028004E002884FF6FF53E0
:101750001A400280704721B1028842F48062028000
:1017600004E002884FF6FF331A40028070470A46B1
:10177000002181894FF60173194002F0FE031943DD
:101780008181704721B1828942F00102828104E0A7
:1017900082894FF6FE731A408281704721B1028818
:1017A00042F04002028004E002884FF6BF731A4004
:1017B0000280704721B1028842F40042028003E0B7
:1017C0000288C2F30E0202807047B1F5005F04D1B7
:1017D000028842F40052028004E002884DF6FF7352
:1017E0001A400280704721B1028842F01002028044
:1017F00004E002884FF6EF731A400280704721B967
:10180000028842F08002028004E002884FF67F7373
:101810001A4002807047B1F5804F05D0828B4BF69D
:10182000FF731A40828303E0828B42F480428283FA
:10183000704712B141F0010101E001F0FE010182A7
:101840007047018270470146088AC0B27047B1F5FF
:10185000006F04D1028842F40062028004E0028832
:101860004FF2FF731A400280704721B1028842F4A0
:101870008052028004E002884EF6FF731A40028014
:101880007047B1F5006F04D1028842F40062028013
:1018900004E002884FF2FF731A400280704721B1C2
:1018A000028842F02002028004E002884FF6DF73D3
:1018B0001A40028070470146088B0012704721B120
:1018C000828842F40062828004E082884FF2FF73D3
:1018D0001A408280704721B1828842F4805282800F
:1018E00004E082884EF6FF731A408280704708B584
:1018F0000246002000900092009808440090009852
:10190000008808BD1AB183880B43838002E0838876
:101910008B438380704770B5024600240025002366
:101920000020958A138B1B0445EA030626F07F44AA
:1019300004EA01068E4201D1012000E0002070BDC2
:1019400010B501460020002300228B8A0A8B120466
:1019500043EA020424F07F4010BD0CB5024600208B
:1019600000230193009300920B0F019321F07F411C
:10197000019B1BB1009B1433009303E0090C009BF7
:1019800018330093009B1B680B400BB1012000E053
:1019900000200CBD002221F07F42D3438382704798
:1019A00030B5024600200023948801F0E06504EA87
:1019B000154321F07F41948A0C4014B10BB10120F2
:1019C00000E0002030BD00000054004000127A000A
:1019D00040420F00A0860100002221F07F42D34345
:1019E0008382704710B504460C223D21204601F049
:1019F000C2FA0E223B21204601F0BDFA10BD10B5FF
:101A000004460C223D21204601F0EAFA0E223B2139
:101A1000204601F0E5FA10BD2DE9F04104460D46DF
:101A2000164625B12146304601F086FA074638466B
:101A3000BDE8F0812DE9F04F8BB080468946924693
:101A40009B462021149801F077FA049021211498E4
:101A500001F072FA03902221149801F06DFA0A90B5
:101A60002321149801F068FA09902421149801F0B8
:101A700063FA08902521149801F05EFA0790262158
:101A8000149801F059FA06902721149801F054FA9D
:101A90000590DDE9032141EA022002F08BFC019070
:101AA00002F06CFC0746DDE9092141EA022002F060
:101AB00081FC019002F062FC0446DDE9072141EA65
:101AC000022002F077FC019002F058FC0546DDE9A7
:101AD000052141EA022002F06DFC019002F04EFC6B
:101AE000064604F4004050B14FF6FF71081B02F0A7
:101AF00061FC80F00040019002F040FC044605F4D7
:101B0000004050B14FF6FF71481B02F053FC80F0CB
:101B10000040019002F032FC054606F4004050B14E
:101B20004FF6FF71881B02F045FC80F000400190E9
:101B300002F024FC064607F4004050B14FF6FF7156
:101B4000C81B02F037FC80F00040019002F016FC48
:101B5000074607FB07F104FB041105FB051106FB13
:101B6000061002F027FC019001F043FF0290384676
:101B700002F020FCC8F80000204602F01BFCC9F867
:101B80000000284602F016FCCAF80000304602F0B9
:101B900011FCCBF800000BB0BDE8F08F2DE9F04F41
:101BA0008BB08046894692469B462021149801F0CE
:101BB000F8F904902121149801F0F3F903902221FF
:101BC000149801F0EEF90A902321149801F0E9F934
:101BD00009902421149801F0E4F908902521149823
:101BE00001F0DFF907902621149801F0DAF9069048
:101BF0002721149801F0D5F90590DDE9032141EA88
:101C0000022002F0D7FB019002F0B8FB0746DDE9A5
:101C1000092141EA022002F0CDFB019002F0AEFB67
:101C20000446DDE9072141EA022002F0C3FB0190EE
:101C300002F0A4FB0546DDE9052141EA022002F09D
:101C4000B9FB019002F09AFB064604F4004050B143
:101C50004FF6FF71081B02F0ADFB80F000400190D1
:101C600002F08CFB044605F4004050B14FF6FF71C2
:101C7000481B02F09FFB80F00040019002F07EFBC9
:101C8000054606F4004050B14FF6FF71881B02F084
:101C900091FB80F00040019002F070FB064607F4D3
:101CA000004050B14FF6FF71C81B02F083FB80F07B
:101CB0000040019002F062FB074607FB07F104FBBE
:101CC000041105FB051106FB061002F073FB0190E1
:101CD00001F08FFE0290384602F06CFBC8F800005D
:101CE000204602F067FBC9F80000284602F062FBBC
:101CF000CAF80000304602F05DFBCBF800000BB0E4
:101D0000BDE8F08F2DE9F04F87B006460F469046AC
:101D100099461C21484601F044F906901D21484689
:101D200001F03FF905901E21484601F03AF9049070
:101D30001F21484601F035F903901A21484601F069
:101D400030F902901B21484601F02BF90190DDE9A2
:101D5000052141EA022002F02DFB834602F00EFB32
:101D60000446DDE9032141EA022002F023FB834619
:101D700002F004FB0546DDE9012141EA022002F000
:101D800019FB834602F0FAFA824604F4004050B18F
:101D90004FF6FF71081B02F00DFB80F0004B584618
:101DA00002F0ECFA044605F4004050B14FF6FF7122
:101DB000481B02F0FFFA80F0004B584602F0DEFAB2
:101DC00005460AF4004058B14FF6FF71A1EB0A0036
:101DD00002F0F0FA80F0004B584602F0CFFA82464B
:101DE000009802F0E7FA3060204602F0E3FA38602B
:101DF000284602F0DFFAC8F8000007B0BDE8F08F0F
:101E00002DE9F04F87B004460D4616469A46082144
:101E1000504601F091F883460921504601F08CF8B4
:101E200006900A21504601F087F805900B21504694
:101E300001F082F804900C21504601F07DF80390E7
:101E40000D21504601F078F8029006994BEA0120E6
:101E500002F0B0FA019002F091FA0746DDE90421A0
:101E600041EA022002F0A6FA019002F087FA8046C9
:101E7000DDE9022141EA022002F09CFA019002F021
:101E80007DFA814607F4004040B14FF6FF71C81B50
:101E900002F090FA80F00040206003E0384602F043
:101EA00089FA206008F4004048B14FF6FF71A1EBB9
:101EB000080002F07FFA80F00040286003E040460E
:101EC00002F078FA286009F4004048B14FF6FF713B
:101ED000A1EB090002F06EFA80F00040306003E0F0
:101EE000484602F067FA306007B0BDE8F08F2DE990
:101EF000F04F87B004460D4616469A460E215046CE
:101F000001F01AF883460F21504601F015F80690AB
:101F10001021504601F010F805901121504601F0B3
:101F20000BF804901221504601F006F8039013219B
:101F3000504601F001F8029006994BEA012002F0A8
:101F400039FA019002F01AFA0746DDE9042141EA64
:101F5000022002F02FFA019002F010FA8046DDE92B
:101F6000022141EA022002F025FA019002F006FA6D
:101F7000814607F4004040B14FF6FF71C81B02F0E4
:101F800019FA80F00040206003E0384602F012FAAF
:101F9000206008F4004048B14FF6FF71A1EB080043
:101FA00002F008FA80F00040286003E0404602F0AA
:101FB00001FA286009F4004048B14FF6FF71A1EB27
:101FC000090002F0F7F980F00040306003E0484675
:101FD00002F0F0F9306007B0BDE8F08F2DE9F04F66
:101FE00087B004460D4616469A462821504600F012
:101FF000D8FF83462921504600F0D3FF06902A21BE
:10200000504600F0CEFF05902B21504600F0C9FF4E
:1020100004902C21504600F0C4FF03902D2150461F
:1020200000F0BFFF029006994BEA012002F0C2F9CE
:10203000019002F0A3F90746DDE9042141EA0220FC
:1020400002F0B8F9019002F099F98046DDE9022129
:1020500041EA022002F0AEF9019002F08FF98146C8
:1020600007F4004040B14FF6FF71C81B02F0A2F91F
:1020700080F00040206003E0384602F09BF92060C9
:1020800008F4004048B14FF6FF71A1EB080002F0E0
:1020900091F980F00040286003E0404602F08AF9A0
:1020A000286009F4004048B14FF6FF71A1EB090028
:1020B00002F080F980F00040306003E0484602F012
:1020C00079F9306007B0BDE8F08F000010B5044624
:1020D000B4F1804F08D101210846FEF798FF002196
:1020E0000120FEF794FF5EE0FB48844208D1012105
:1020F0000220FEF78CFF00210220FEF788FF52E04D
:10210000F648844208D101210420FEF780FF002117
:102110000420FEF77CFF46E0F148844208D101210B
:102120000820FEF774FF00210820FEF770FF3AE058
:10213000EC48844208D101211020FEF768FF0021FD
:102140001020FEF764FF2EE0E748844208D1012109
:102150002020FEF75CFF00212020FEF758FF22E040
:10216000E248844208D101210420FEF73FFF00210C
:102170000420FEF73BFF16E0DD48844208D1012130
:102180000820FEF733FF00210820FEF72FFF0AE0AA
:10219000D848844207D101211020FEF727FF0021F3
:1021A0001020FEF723FF10BD00220288B0F1804FFF
:1021B00008D0C94B984205D0C84B984202D0C84BB2
:1021C000984204D14FF68F731A404B881A43C54B7F
:1021D000984207D0C44B984204D04FF6FF431A40B0
:1021E0000B891A4302804B68C3620B880385012365
:1021F000838270474FF0FF314160002101800181EF
:10220000418070470185828270470A46002101881B
:102210004FF68F7319401143018070474162704738
:10222000C16270470146486A70470146088D704791
:1022300021B1028842F00202028004E002884FF6D7
:10224000FD731A400280704721B1028842F00402F7
:10225000028004E002884FF6FB731A400280704748
:1022600021B1028842F08002028004E002884FF629
:102270007F731A400280704702884FF6F7731A4046
:10228000028002880A430280704702884FF6FF43AB
:102290001A40028002880A430280704721B10288F6
:1022A00042F00102028004E002884FF6FE731A40F9
:1022B0000280704730B500230022048C4FF6FE7573
:1022C0002C400484028C038B4FF68F742340AC1E89
:1022D00023400C8823436C1E22400C8922434C88E7
:1022E00022434C6844630383028430BD30B500232D
:1022F0000022048C4FF6EF752C400484028C038B73
:1023000048F6FF7423400C884FF6FF7505EA042455
:1023100023434FF6DF7422400C8905EA041422435C
:102320004C8805EA041422434C68846303830284C6
:1023300030BD30B500230022048C4FF6FF652C40E1
:102340000484028C838B4FF68F7423400C882343C4
:102350004FF6FF5422400C894FF6FF7505EA04241E
:1023600022434C8805EA042422434C68C4638383D7
:10237000028430BD30B500230022048C4EF6FF7578
:102380002C400484028C838B48F6FF7423400C8815
:102390004FF6FF7505EA042423434DF6FF742240EF
:1023A0000C8905EA043422434C8805EA04342243AC
:1023B0004C6804648383028430BD00210180418025
:1023C00041600181704770B5034600200024184623
:1023D000183001258D40ACB21D8CA5431D8409B178
:1023E000082909D100EB6100056825F0700505603A
:1023F0000568154305600EE00D1FC5F34E05284422
:10240000056825F4E045056005684FF6FF7606EAA5
:1024100002263543056070BD416370478163704794
:10242000C1637047016470470A460021018B4FF673
:102430008F7319401143018370470A460021018BB5
:1024400048F6FF7319404FF6FF7303EA022319435E
:10245000018370470A460021818B4FF68F73194024
:102460001143818370470A460021818B48F6FF7330
:1024700019404FF6FF7303EA022319438183704723
:102480000A460021018B4FF6F7731940114301836F
:1024900070470A460021018B4FF2FF7319404FF637
:1024A000FF7303EA02231943018370470A460021A0
:1024B000818B4FF6F77319401143818370470A46A9
:1024C0000021818B4FF2FF7319404FF6FF7303EA2F
:1024D0000223194381837047000400400008004034
:1024E000000C0040001000400014004000080140B3
:1024F000000C0140001001400A460021018B4FF6FC
:10250000FB7319401143018370470A460021018B78
:102510004FF6FF3319404FF6FF7303EA02231943C6
:10252000018370470A460021818B4FF6FB731940E7
:102530001143818370470A460021818B4FF6FF3398
:1025400019404FF6FF7303EA022319438183704752
:102550000A460021018B4FF67F7319401143018316
:1025600070470A460021018BC1F30E014FF6FF733D
:1025700003EA02231943018370470A460021818B35
:102580004FF67F7319401143818370470A4600213B
:10259000818BC1F30E014FF6FF7303EA0223194347
:1025A000818370470A460021018C4FF6FD73194064
:1025B0001143018470470A460021018C4FF6DF73F6
:1025C00019404FF6FF7303EA021319430184704761
:1025D0000A460021018C4FF6FF5319404FF6FF7356
:1025E00003EA02231943018470470A460021018C43
:1025F0004DF6FF7319404FF6FF7303EA0233194398
:102600000184704702894FF6F7731A4002810289EC
:102610000A430281704730B5002301248C40A3B2E5
:10262000048C9C430484048C02FA01F5ADB22C4363
:10263000048430BD828B4FF2FF331A408283828B39
:102640004FF6FF7303EA01231A4382837047F0B504
:102650000C461546002100220026078C4EF6FF7C12
:1026600007EA0C070784818B028C4FF6FF7707EA95
:10267000043640F6FF4739404FF6FF7707EA052753
:1026800039434FF6FF7707EA0337394345F6FF77BB
:102690003A4046F480573A4381830284F0BD828BEE
:1026A0004FF6F3731A408283828B0A43828370470A
:1026B000F0B50C461546002100220026078C4FF687
:1026C000FF6C07EA0C070784818B028C4FF6FF77BB
:1026D00007EA04264FF60C7739404FF6FF7707EAF2
:1026E00003172F4339434FF2FF573A4046F48077A0
:1026F0003A4381830284F0BD028B4FF2FF331A40CC
:102700000283028B4FF6FF7303EA01231A4302830D
:102710007047F0B50C461546002100220026078CB4
:102720004FF6EF7C07EA0C070784018B028C4FF60B
:10273000FF7707EA041640F6FF4739404FF6FF7768
:1027400007EA033739434FF6FF7707EA052739438E
:102750004FF65F773A4046F010073A430183028410
:10276000F0BD028B4FF6F3731A400283028B0A43CB
:1027700002837047F0B50C46154600210022068CF6
:102780004FF6FE773E400684018B028C4FF60C76A6
:1027900031407E1C06EA03162E4331434FF6F57690
:1027A000324044F00106324301830284F0BD70B52B
:1027B00005460C46208850B92389A288618828469E
:1027C000FFF7D8FFE1882846FFF7CBFF25E02088F8
:1027D00004280AD12389A28861882846FFF799FF37
:1027E000E1882846FFF788FF17E0208808280AD1EB
:1027F0002389A28861882846FFF75AFFE188284686
:10280000FFF74DFF09E02389A28861882846FFF77A
:102810001EFFE1882846FFF70DFF70BD00210180F3
:102820004180012181800021C180018170472DE913
:10283000F04105460C4600260127608808B90226AB
:1028400000E00026A088012801D1022700E001272E
:102850002088A0B92389A28861882846FFF78AFFCB
:10286000E1882846FFF77DFF23893A46314628460E
:10287000FFF74FFFE1882846FFF73EFF13E023896B
:10288000A28861882846FFF744FFE1882846FFF7C1
:1028900033FF23893A4631462846FFF76BFFE1882C
:1028A0002846FFF75EFFBDE8F0810146486B7047A0
:1028B0000146886B70470146C86B70470146086C3B
:1028C00070471AB183890B43838102E083898B436C
:1028D000838170478182704702460020138A0B4033
:1028E0000BB1012000E000207047CA43028270470C
:1028F00030B50246002000230024158A05EA0103B2
:10290000958905EA010413B10CB1012000E0002013
:1029100030BDCA430282704741EA0203A0F8483042
:1029200070471AB183890B43838102E083898B430B
:102930008381704721B1828842F00802828004E0DE
:1029400082884FF6F7731A408280704701894FF6EC
:10295000F8721140018170470A46002101894FF643
:102960008F73194011430181704730B504460D46FD
:1029700029462046FFF7F0FF208940F0070020811C
:1029800030BD2DE9F04104460D4616461F46602D28
:1029900006D13B46012231462046FFF7BAFE05E04C
:1029A0003B46012231462046FFF7E4FE29462046F9
:1029B000FFF7D2FF208940F007002081BDE8F081B9
:1029C00030B50C4600210189C9B24FF6FF7505EA02
:1029D0000325154325432943018130BD2DE9F041ED
:1029E00005460E4617469846002443463A46314669
:1029F0002846FFF7E5FF2C894FF6F870044044F0B5
:102A000007044FF68F70044044F070042C81BDE839
:102A1000F081F0B504460D4616461F463B46324649
:102A200029462046FFF7CCFF208940F480402081D2
:102A3000F0BD82884FF68F731A40828082880A43E5
:102A40008280704702894FF6F8731A40028102892A
:102A50000A430281704702894FF67F731A40028150
:102A600002890A4302817047F0B50C4615461E469E
:102A70000021002200230189028B038C4FF6F87796
:102A8000394021434FF6FC473A4040F201173A43A0
:102A90004FF6DD773B404FF6FF7707EA06172F43E7
:102AA0003B43018102830384F0BD21B1828842F05F
:102AB0008002828004E082884FF67F731A40828011
:102AC000704730F8502F02EA1142028002888BB220
:102AD0001A4320F85029704701684FF6FE721140E2
:102AE00001600021016041608160C1608D498842C0
:102AF00008D18C490839496841F00F01894A083AE0
:102B000051608AE087491431884208D185490839E3
:102B1000496841F0F001834A083A51607DE08149FB
:102B20002831884208D17F490839496841F47061E9
:102B30007C4A083A516070E07A493C31884208D1B9
:102B400078490839496841F47041764A083A516039
:102B500063E074495031884208D1724908394968A4
:102B600041F470216F4A083A516056E06D49643172
:102B7000884208D16B490839496841F47001694AB3
:102B8000083A516049E067497831884208D165497F
:102B90000839496841F07061624A083A51603CE086
:102BA0006149884206D1011F096841F00F01021FE7
:102BB000116032E05C491431884208D15A49091F3A
:102BC000096841F0F001584A121F116025E056498A
:102BD0002831884208D15449091F096841F47061BD
:102BE000514A121F116018E04F493C31884208D108
:102BF0004D49091F096841F470414B4A121F116089
:102C00000BE049495031884207D14749091F0968FB
:102C100041F47021444A121F1160704710B5002220
:102C2000026847F6F0739A430C6A8B6823430C6979
:102C300023434C6923438C692343CC6923434C6A67
:102C400023438C6A23431A430260CB6843600B68BA
:102C500083604B68C36010BD0021016041608160EA
:102C6000C160016141618161C16101624162816252
:102C7000704721B1026842F00102026004E002687C
:102C80004FF6FE731A40026070474160704701467C
:102C9000486880B270471AB103680B43036002E0D2
:102CA00003688B430360704701460020002201F057
:102CB00080531BB91B4B083B1A6802E01A4B083BB8
:102CC0001A6802EA01030BB1012000E000207047FE
:102CD00000F0805119B913490839486002E01249DF
:102CE000091F0860704701460020002201F0805350
:102CF0001BB90C4B083B1A6802E00B4B083B1A68E7
:102D000002EA01030BB1012000E00020704700F04F
:102D1000805119B903490839486002E00249091F86
:102D200008607047086002400864024000B587B040
:102D300001214805FEF738F901210220FEF712F9BA
:102D4000C020059002208DF8180003208DF819008E
:102D500001208DF81A008DF81B0004220621AB48D3
:102D6000FDF759FF04220721A848FDF754FFA848A2
:102D700001900020ADF808004BF6FF70ADF80A0096
:102D80000020ADF80C00ADF80E004FF48040ADF817
:102D9000100001219F48FEF7BAFC01A99D48FEF7EB
:102DA0003AFC05A99948FDF7ADFE07B000BD00B596
:102DB00087B001218805FEF7F7F801210220FEF710
:102DC000D1F84FF44060059002208DF818000320E0
:102DD0008DF8190001208DF81A008DF81B000422CF
:102DE0000A218A48FDF717FF04220B218748FDF7C7
:102DF00012FF874801900020ADF808004BF6FF70E5
:102E0000ADF80A000020ADF80C00ADF80E004FF44C
:102E10008040ADF8100001217F48FEF778FC01A941
:102E20007D48FEF7F8FB05A97848FDF76BFE07B073
:102E300000BD70B505460E46144600BF4FF4003184
:102E40002846FEF78AFD0028F8D101212846FEF722
:102E50006AFC00BF71492846FEF75DFD0028F9D0E5
:102E6000224631462846FEF7E4FC3CB900BF6C49D7
:102E70002846FEF750FD0028F9D009E0012C07D1C3
:102E800000BF6649491C2846FEF745FD0028F8D0DA
:102E900070BD70B504460D4600BF6149891E2046CD
:102EA000FEF739FD0028F8D029462046FEF7C9FC78
:102EB00070BD70B5044601212046FEF74CFC00BFF2
:102EC00056493F312046FEF726FD0028F8D020461F
:102ED000FEF7B9FC0546284670BD70B504460021D2
:102EE0002046FEF738FC01212046FEF728FC00BFF3
:102EF0004A493F312046FEF70EFD0028F8D0204613
:102F0000FEF7A1FC0546284670BD10B5044600BF7B
:102F10004349891E2046FEF7FEFC0028F8D0012117
:102F20002046FEF70CFC00BF3D49891C2046FEF7F9
:102F3000F2FC0028F8D010BD70B504460D466006BE
:102F4000010E00223348FFF774FF29463148FFF78E
:102F5000A0FF3048FFF7D9FF022000F06EFD6006A9
:102F6000010E01222B48FFF764FF2A48FFF7B5FF47
:102F70000646304670BD70B504460E4615466006DE
:102F8000010E00222348FFF754FF31462148FFF786
:102F900080FF29461F48FFF77CFF1E48FFF7B5FF5B
:102FA00070BD70B504460D466006010E00221A4839
:102FB000FFF73FFF29461848FFF76BFF1648FFF75A
:102FC000A4FF022000F039FD6006010E0122124824
:102FD000FFF72FFF1048FFF780FF0646304670BD11
:102FE00070B504460E4615466006010E00220A48DA
:102FF000FFF71FFF31460848FFF74BFF29460648F9
:10300000FFF747FF0448FFF780FF70BD0004024050
:10301000A086010000540040005800400100030059
:103020008200070001460020FE4A106820F00100DF
:1030300008431060704730B1FA49096841F0020155
:10304000F84A116005E0F749096821F00201F54AE4
:103050001160704730B1F349096841F00401F14A49
:10306000116005E0EF49096821F00401ED4A1160A3
:10307000704730B1EB49096841F00801E94A116035
:1030800005E0E849096821F00801E64A1160704747
:10309000E448001D006800F0010028B1E248E14961
:1030A0000C310860E1480860704700B5DD48001D3C
:1030B000006800F0020038B1FFF7EAFFDC48D949A8
:1030C00010310860DB48086000BDD648001D00686C
:1030D00040F00200D349091D086070470420D1491F
:1030E0001831096801F0010109B1012010E0CD4952
:1030F0001831096801F4807109B1022008E0C9495A
:103100001831096801F4F05109B1032000E00420EE
:10311000704708B5024604200090FFF7DFFF0090DB
:1031200003E0FFF7DBFF0090521E9DF8000001282E
:1031300001D1002AF5D10AB9052000909DF80000C0
:1031400008BD30B5044604256803FFF7E2FF0546D5
:10315000042D1FD1B348001D006840F40070B14930
:10316000091D08600846006840F00800086000205B
:1031700020606803FFF7CDFF0546AA48001D0068E0
:1031800020F00800A749091D08600846006820F4DF
:1031900000700860284630BD70B504460D46042610
:1031A0007003FFF7B6FF0646042E04D125604003E6
:1031B000FFF7AFFF0646304670BD9A48001D006815
:1031C00040F001009749091D0860704740B19549DA
:1031D000091D096841F48071924A121D116007E0CF
:1031E0009049091D096821F480718E4A121D1160F1
:1031F000704730B5044604256803FFF78AFF05468B
:10320000042D01D100202070284630BD30B5044681
:1032100004256803FFF77DFF0546042D01D100203A
:103220002080284630BD30B5044604256803FFF7EA
:1032300070FF0546042D01D100202060284630BDD6
:1032400070B504460D4604267003FFF762FF06467C
:10325000042E0CD17348001D006820F48070714961
:10326000091D086025607003FFF753FF06463046CE
:1032700070BD2DE9F04104460D46042600274FF0AD
:1032800000087003FFF745FF0646042E24D1654869
:10329000001D006820F480706249091D08602DB18E
:1032A00025707003FFF735FF064615E024F003088C
:1032B000D8F80070A007C10EFF2000FA01F827EA35
:1032C000080724F00300FFF7AEFF064624F00300D2
:1032D0003946FFF7B5FF06463046BDE8F0812DE9D7
:1032E000F04104460D46042600274FF00008700305
:1032F000FFF70FFF0646042E32D14A48001D006832
:1033000020F480704749091D08602DB125807003A5
:10331000FFF7FFFE064623E004F00300032817D062
:1033200024F00308D8F80070A007C10E4FF6FF7014
:1033300000FA01F827EA080724F00300FFF773FFFB
:10334000064624F003003946FFF77AFF064607E0F9
:1033500000212046FFF78DFF0021601CFFF789FF49
:103360003046BDE8F0812DE9F04104460D460426C3
:1033700000274FF000087003FFF7CBFE0646042E2F
:103380001CD12DB125704003FFF7C3FE064615E0A2
:1033900024F00308D8F80070A007C10EFF2000FA3F
:1033A00001F827EA080724F00300FFF73CFF064670
:1033B00024F003003946FFF743FF06463046BDE8D8
:1033C000F0812DE9F04104460D46042600274FF018
:1033D00000087003FFF79DFE0646042E34D12DB180
:1033E00025804003FFF795FE06462DE004F003001C
:1033F000032821D024F00308D8F80070A007C10EDC
:103400004FF6FF7000FA01F827EA080724F00300DE
:10341000FFF709FF064624F003003946FFF710FFC7
:10342000064611E0003C0240EFCDAB8905040302E3
:10343000BFAE9D8C1615141300212046FFF719FF0F
:103440000021601CFFF715FF3046BDE8F08170B524
:1034500004460D4604267003FFF75BFE0646042E65
:1034600004D125604003FFF754FE0646304670BD88
:1034700000B5DC48006800F0040038B1FFF708FE32
:10348000D948D84910310860D848086000BDD548EF
:10349000006840F00400D34908607047D1480068D4
:1034A00040F48020CF49086070472DE9F04704467A
:1034B0000F46002500264FF00408A946AA464FF4FF
:1034C0000040FFF726FE8046B8F1040F31D1AFB1BE
:1034D000C7488068204385B2C548C06840EA1440A8
:1034E00086B2E84345EA0049C148C0F80890F04375
:1034F00046EA004ABE48C0F80CA015E0BC48806807
:1035000080B220EA0405BA48C068E14300EA1146E7
:10351000E84345EA0049B648C0F80890F04346EA57
:10352000004AB348C0F80CA04FF40040FFF7F1FD8B
:1035300080464046BDE8F0872DE9F04704460F4637
:10354000002500264FF00408A946AA464FF4004083
:10355000FFF7DFFD8046B8F1040F31D1AFB1A448C9
:103560000069204385B2A248406940EA144086B20F
:10357000E84345EA00499E48C0F81090F04346EA07
:10358000004A9B48C0F814A015E09948006980B231
:1035900020EA040596484069E14300EA1146E84301
:1035A00045EA00499248C0F81090F04346EA004AC4
:1035B0008F48C0F814A04FF40040FFF7AAFD8046E2
:1035C0004046BDE8F0872DE9F04704460F46002548
:1035D00000264FF00408A946AA464FF40040FFF722
:1035E00098FD8046B8F1040F31D1AFB180488069B1
:1035F000204385B27E48C06940EA144086B2E84361
:1036000045EA00497A48C0F81890F04346EA004A73
:103610007748C0F81CA015E07548806980B220EAA0
:1036200004057348C069E14300EA1146E84345EAEE
:1036300000496F48C0F81890F04346EA004A6C48C9
:10364000C0F81CA04FF40040FFF763FD80464046E1
:10365000BDE8F087F0B5044604250026002768037E
:10366000FFF757FD0546E043C6B244EA0647042D7E
:1036700001D15F4807604FF40040FFF74AFD05465F
:103680002846F0BD2DE9F04304460D4616460427B2
:103690004FF000084FF00009524818300068C0F39E
:1036A000034944EA0500304340EA0900C0434FEAB9
:1036B000004844EA0500304340EA090040EA0808AF
:1036C0007803FFF726FD0746042F02D14848C0F8CB
:1036D00004804FF40040FFF71CFD07463846BDE864
:1036E000F083F0B504460425002600273D48183035
:1036F000006800F47000070C44EA0700C0430604A9
:1037000044EA070006436803FFF703FD0546042D5E
:1037100001D1374846604FF40040FFF7FAFC0546F8
:103720002846F0BDF0B504460425002600272D48A4
:1037300018300068C0F3064744EA0700C043060497
:1037400044EA070006436803FFF7E3FC0546042D3F
:1037500001D1274846604FF40040FFF7DAFC0546E8
:103760002846F0BD1F4818300068C0F30750704766
:103770001C481C30006870471A487C30006870474D
:1037800018488030006870470020164918310968D1
:10379000C9B2AA2901D0012000E0002070471148D9
:1037A00018300068C0F30340704729B10D4A126811
:1037B00002430C4B1A6004E00A4A12688243094B28
:1037C0001A60704701460020064A143212680A4007
:1037D0000AB1012000E0002070470249143108605E
:1037E00070470000043C0240C8D9EAFB2726252484
:1037F0000000F81F70B50446002503E0605DFCF78B
:103800006AFE6D1C605D0028F8D170BD00B593B0F4
:1038100001210806FDF7A6FBFE48FFF75DF9FE480B
:103820000290FE480390002004900A20059000209A
:10383000069080200790400008908000099020208A
:103840000A9000020B9000200C9002A9F148FFF7AB
:10385000E5F90121EF48FFF70CFA0120FDF78AFA9C
:1038600001210846FDF77EFBFF20009003208DF824
:10387000040000208DF807006946E948FDF742F989
:1038800001210420FDF76EFB3020009003208DF80D
:10389000040000208DF807006946E248FDF732F980
:1038A00000BF2120FDF716FA0028FAD001214802B6
:1038B000FDF769FB01208DF838008DF839000020F4
:1038C0000F9011900A208DF848000DA9D248583861
:1038D000FCF72AFE062301220021CF485838FCF7C6
:1038E000ACFE062302220121CB485838FCF7A5FE86
:1038F000062303220221C8485838FCF79EFE0623FF
:1039000004220321C4485838FCF797FE06230522F9
:103910000421C1485838FCF790FE06231A460521B9
:10392000BD485838FCF789FE062307221946BA48D5
:103930005838FCF782FE062308220721B64858387B
:10394000FCF77BFE062309220E21B3485838FCF70A
:1039500074FE06230A220F21AF485838FCF76DFE8B
:103960000121AD485838FCF75FFF0121AA485838BB
:10397000FCF74FFF0121A8485838FCF715FE00BF9F
:103980004021A5485838FDF737F80028F8D0A2485C
:103990005838FCF7FEFE13B000BD1FB52B208DF884
:1039A0000C0000208DF80D0001208DF80E008DF820
:1039B0000F0003A8FDF7ABFD01211020FDF7F4FA7D
:1039C0000020ADF80000ADF8020040F24110019077
:1039D0000020ADF8080069469348FEF7E5FB012199
:1039E0009148FEF75BFC012211468F48FEF769FF04
:1039F0001FBD2DE9F04704464FF07C51204600F0F2
:103A000025FD814625462E468848A0EB66063546AC
:103A10002946484600F01AFD8246294600F016FD68
:103A200080464FF07F5100F00EFE0746294600F019
:103A30000DFD05462846BDE8F0877D4A116800BFA8
:103A400042187B4B1B689A42FADC704710B57948E4
:103A50000068401C7749086075480068401C74493C
:103A60000860744800687449884202D9012073498B
:103A7000086001216C48FEF738FF10BD10B5012029
:103A80006E49086000240CE0644830F814006C496A
:103A900021F81400614830F814006A4921F8140034
:103AA000641C0A2CF0DB00206149086066A0FFF767
:103AB000A1FE20E000241CE0584830F814006049C2
:103AC00031F81410884205DA544830F814005C4983
:103AD00021F81400514830F814005A4931F81410F4
:103AE000884205DD4D4830F81400564921F814008D
:103AF000641C0A2CE0DB4E48006858498842D9DB38
:103B0000FFF7C6FA1420FFF798FF00241CE0544981
:103B100001EB44000021FFF754FC0A2C07DA484A65
:103B200032F814104E4A02EB4400FFF74AFC092C0D
:103B300009DDA4F10A02434B33F81210484A02EBA4
:103B40004400FFF73EFC641C142CE0DB10BDE8B021
:103B5000FFF723FFFCF76AFC42A0FFF74BFEFFF7DD
:103B6000E5F82820FDF73EFF2920FDF73BFFFFF792
:103B70001EF92820FDF743FFFFF748FE002406E06A
:103B8000374931F814002E4921F81400641C0A2C1E
:103B9000F6DB002408E004F10A00314931F8100096
:103BA000284921F81400641C0A2CF4DB002410E0DE
:103BB000244830F81400CDE90040214830F8143092
:103BC00022462CA136A800F077F936A8FFF712FE9E
:103BD000641C0A2CECDB282327AA28A929A8FEF7B5
:103BE000FDF9289F56E1282032AB33AA34A9009072
:103BF00035A8FDF71FFF29202EAB2FAA30A9009072
:103C000031A8FDF717FF28202AAB2BAA2CA900907A
:103C10002DA839E00860024058240140B40000207B
:103C2000000002400008024000100040DF59375FEA
:103C3000380000204000002020A107003C000020A8
:103C4000C8000020DC000020382073656B756E64AE
:103C50002063616C696272616365000000350C006D
:103C60000000080848656C6C6F20776F726C6421E7
:103C70002100000061646C25643A25640961646870
:103C800025643A25640D0000FDF788FF824800682E
:103C900028BB282327AA28A929A8FEF79FF9294687
:103CA000289800F09FFB00D2289D3146289800F00C
:103CB00099FC00D2289E7949384600F0CFFC804616
:103CC000294600F08FFC0AD27449384600F026FAE3
:103CD0008046314600F086FB01D2FFF7CFFE00247C
:103CE00041E06F4830F814006E4931F81410401A62
:103CF0001ED06B4931F814106A4A32F81420881A21
:103D000000F058FB8146684931F81410654A32F8D2
:103D10001420881A00F04EFB8246644900F096FB9E
:103D20008046494600F068FA614941F8240003E002
:103D30005E485F4941F824005D4951F824005B4921
:103D400000F050FC03D25948594941F82400584921
:103D500051F82400002100F045FB03D20020544913
:103D600041F82400641C0A2CBBDB4B480068002887
:103D70007ED04F49486A00F001FB80464C49086AF2
:103D800000F0FCFA81464A49C86900F0F7FA824619
:103D90004749886900F0F2FA83464549486900F0CE
:103DA000EDFA43492690086900F0E8FA4049259069
:103DB000C86800F0E3FA3E492490886800F0DEFA13
:103DC0003B492390486800F0D9FA394922900868A5
:103DD00000F0D4FA21902A9800F0D0FA20902B9885
:103DE00000F0CCFA1F902C9800F0C8FA1E902D9885
:103DF00000F0C4FA1D902E9800F0C0FA1C902F9885
:103E000000F0BCFA1B90309800F0B8FA1A90319884
:103E100000F0B4FA1990329800F0B0FA1890339884
:103E200000F0ACFA1790349800F0A8FA1690359884
:103E300000F0A4FACDE910BACDE912981590DDE9A9
:103E40002323DDE92510CDE90C23CDE90E10DDE9B2
:103E50001F23DDE92110CDE90823CDE90A10DDE9B2
:103E60001B23DDE91D10CDE90423CDE9061000E098
:103E700010E0DDE91723DDE91910CDE90023CDE9D4
:103E800002100C4936A8DDE9152300F015F836A814
:103E9000FFF7B0FCA7E600003C0000200000AF43A5
:103EA000DC000020C8000020B40000200000C84250
:103EB000F0000020484700080FB41CB5074B06AAC5
:103EC0007B4469460090059800F0D9F800206946C7
:103ED00000F0E8F81CBC5DF814FB0000E1010000F4
:103EE0002DE9F0410E460446002020622046E1689C
:103EF000884730B3252805D0D4E901219047206AAE
:103F0000401CF2E7E168204600278847050018D0EA
:103F1000A5F14100192802D820354FF40067324638
:103F2000294620462760FCF71FF940B1012804D03C
:103F3000F61D26F007060836D8E7361DD6E72846D0
:103F4000DAE7206ABDE8F0812DE9F0410646002459
:103F500010687529314615A510D0AFF300800028F0
:103F600002DA404212A507E031688A0701D511A59F
:103F700002E0490704D510A5012401E0AFF3008059
:103F800000210A2306F1240707E0B0FBF3F203FB4C
:103F90001200303078541046491C0028F5D12346D1
:103FA0002A463046BDE8F04100F00BB800000000A2
:103FB0002D0000002B00000020000000704770471B
:103FC00070472DE9F0470D4699469246044600F1A8
:103FD00024080168880604D5E06921F010012160F9
:103FE00000E00120A84201DD471B00E00027A16995
:103FF0007A1902EB0900081AA0612078C00602D4E1
:104000002046AFF30080002608E0D4E901211AF829
:1040100006009047206A401C761C20624E45F4DB67
:104020002078C0060AD52046AFF3008006E0D4E928
:10403000012130209047206A401C2062381EA7F1E1
:104040000107F4DC07E0D4E9012118F805009047E6
:10405000206A401C2062281EA5F10105F3DC2046E1
:10406000AFF300802078000602D50220BDE8F0877B
:104070000120FBE701694A1C02610878704700B51E
:104080008FB0CDE901310021059105497944CDE991
:10409000031011466846FFF723FF0FB000BD000074
:1040A000E5FFFFFF0A6802F8010B0A6070477546DA
:1040B00000F028F8AE4605006946534620F0070098
:1040C000854618B020B5FCF775F8BDE820404FF0E4
:1040D00000064FF000074FF000084FF0000B21F0F2
:1040E0000701AC46ACE8C009ACE8C009ACE8C009BF
:1040F000ACE8C0098D4670470446AFF30080204607
:10410000FCF744F8004870471801002001491820C6
:10411000ABBEFEE7260002007047000090EA010FE8
:1041200048BF81F0004100F1A082421A3CBF801AD2
:1041300089184FEAD0524FF07F4C1CEA410FA2EB96
:10414000D15318BF9CEA026F00F03B804FF0004C47
:104150004CEA00204CEA012121FA03FC10EB0C0C84
:104160001ED202F1FF325FEA1C2040EBC25038BF82
:1041700070471CF07F0F4FEA400C18BFBCF17F4F17
:1041800038BF7047C3F12003994008BF20F00100F9
:10419000BCF17F4F38BF7047A0F1C04000F01DBA9E
:1041A0004FEA3C00000A40EBC25028BF1CF0FF0F52
:1041B0004FEA400CE6D018BFBCF17F4F38BF7047C4
:1041C000EAE79CEA026F05D010EA5C0F08BF00F036
:1041D0000040704710B500F0BAF900BF64FBBE3E66
:1041E000401058BFC0F14040491058BFC1F1404194
:1041F0008142EFF3008070474FF47F0C1CEAD0122D
:104200001EBF1CEAD11392EA0C0F93EA0C0F00F0C8
:10421000858090EA010F48BF42F4807240F4000CA0
:1042200041F400002CF07F4120F07F4000B5814236
:10423000A2EB03020FF2081CACEB504EC0F10000E1
:104240009EF800E04FEA4E0E00FB0EFC38BF49001E
:104250004FEA2C1C02F5FA020CFB0EF34FEACE1EBD
:104260004FEA112C4FEAC1210EEB635E42EB224272
:104270000EFB0CFC4FEA1C5300FB03114FEA112C00
:104280004FEA01310EFB0CFC4FEADC4C00FB0C1139
:10429000C14228BF09184CEB03335DF804EB10EB67
:1042A000410143EBC250B2F57C0F38BF704729D5AE
:1042B00012F0F00F1CBF00F1C04000F0004070474A
:1042C000008182838485868788898B8C8D8E8F91EF
:1042D0009293959697999A9C9D9FA0A2A3A5A7A813
:1042E000AAACAEB0B2B3B5B7B9BCBEC0C2C5C7C93F
:1042F000CCCED1D4D7D9DCDFE2E6E9ECF0F3F7FAA3
:10430000FE0000004FEA400C0CF1807CBCF17E4FB7
:1043100028BF7047B0F1C04000F05FB990EA010FCC
:104320000CEAD11348BF42F48072624538BF63453E
:1043300007D213F47F0F16D080EA010000F000408E
:10434000704710B500F003F9097EFC3E00F005B897
:1043500080EA010000F00040704780EA010000F0B0
:10436000004000F03AB912F47F0F04BF02487047D2
:1043700080EA010000F031B90000C07F41000B0E5F
:10438000D3F19E0208D950F400034FEA032323FA25
:1043900002F048BF4042704710B500F0D8F800BFA7
:1043A00049922480002070476FF0004282EA20008A
:1043B0007047000010F0004148BF4042B0FA80F35F
:1043C00010FA03F2C3F19D030BD051EAC35101EB84
:1043D0001220530638BF704700F1010008BF20F0DB
:1043E0000100704750EA010C00F113801CF5000F2A
:1043F00058BFBCF5000F01D48842704707D710F5AD
:10440000000F58BF11F5000F15D48842704789423C
:1044100070471CF5000F04D5BCF5000FF7D581429D
:1044200070474FF0807C1CEB400F38BF1CEB410FF6
:1044300001D28142704710B500F089F892244900FA
:104440004FF000504FF08051FFF7CABE4FF47F0C81
:104450001CEAD0121EBF1CEAD11392EA0C0F93EA99
:104460000C0F00F0478090EA010F48BF42F48072C1
:104470004FF0004C4CEA00204CEA012102EB030211
:10448000A0FB0113A2F50002002918BF43F00103AD
:104490005B0028BF4FEA330342EB22425FEA132C52
:1044A0004CEBC2502EBFBCEB436FB2F57C0F704794
:1044B0004FEA036CBCF1004F08BF20F00100B2F5D9
:1044C0007C0F38BF70470BD582F0FF0212F5803F9A
:1044D000C8BF704700F1C040D8BF00F0004070472F
:1044E00000F5000C5FEA4C0C48BF7047B0F1C040CB
:1044F00000F073B890EA010F0CEAD11348BF42F400
:104500008072624538BF634504D280EA010000F042
:104510000040704710B500F01AF800BF8900013E56
:1045200000F007B800F009B85FEA410C5FEA1C6CC4
:1045300008D080EA010000F050B85FEA400C5FEA62
:104540001C6CF6D14FF00040A0F5800070470EF1D2
:10455000020E2EF0030E5EF8044B244204D44FEA00
:104560004102B2F17F4F11D84FEA4003B3F17F4FC0
:104570000CD80ED14FEAD07CB2F17F4F0CEB4C0C33
:104580000CF1020C08BF4CEBD17C04E04FF0080C9E
:1045900001E04FEAD17C0CEB4C0324FA03F404F065
:1045A0000704B4F1040C06D20EEB840CBDE81040F5
:1045B0004CF0010C6047DFE80CF0070802024FF0F6
:1045C0000040A0F5800010BD0846420018BFD2F19F
:1045D000807288BF00F0004010BDFF2141EAD0503A
:1045E000C005704751EA000C00F113801CF5000F64
:1045F00058BFBCF5000F01D48142704707D711F5B1
:10460000000F58BF10F5000F15D481427047894242
:1046100070471CF5000F04D5BCF5000FF7D5884294
:1046200070474FF0807C1CEB410F38BF1CEB400FF4
:1046300001D28842704780EA010081EA000180EAE5
:104640000100FFF7F8BE80F0004090EA010F7FF50F
:104650006CAD81F0004100F008B8000090EA010F55
:1046600048BF81F000413FF560AD421A04D882F0A6
:104670000042A0EB020011444FEAD0524FF07F4CB1
:104680001CEA410FA2EBD15318BF9CEA026F4AD03B
:104690004FF0004C4CEA00204CEA012121FA03FCC7
:1046A000B0EB0C0C0FD412F0FE0F36D05FEA4C00CA
:1046B0001DD5001240EBC25038BF70471CF03F0FB1
:1046C00018BF70470BE0A2F101025FEA1C2040EB2B
:1046D000C25038BF70471CF07F0F18BF7047C3F13E
:1046E0002003994014BF401E20F00100704780084D
:1046F0004FEA122308BF7047B0FA80FCA2EB0C020D
:10470000CCF1280C60FA0CF093EA122F04BF00EBF6
:10471000C25070474FEAC3707047130A5FEADC105B
:1047200008BF7047F6E79CEA026F04D010EA5C0FFE
:1047300008BF0020704710B5FFF709FF40DFF63EC5
:1047400081F000407047000071756174313A256452
:104750000971756174323A25640971756174333A6F
:1047600025640971756174343A2564097175617441
:10477000353A25640971756174363A256409717595
:104780006174373A25640971756174383A25640992
:1047900071756174393A2564097175617431303A03
:1047A0002564097175617431313A25640971756147
:1047B0007431323A2564096164313A2564096164CF
:1047C000323A2564096164333A2564096164343AF4
:1047D0002564096164353A2564096164363A2564C3
:1047E000096164373A2564096164383A25640961CE
:1047F00064393A256409616431303A25640D00005A
:10480000204800080000002074000000300100086B
:104810009448000874000020040700004C010008C0
:104820000048E801030406080C10182030000000BE
:104830000000000000010203040607080903040643
:10484000080C1018203000000000010203040102CF
:104850000304060708090000000000000000000033
:104860000000000000000000000000000000000048
:1048700000000000000000000000000064000000D4
:104880006400000064000000640000006400000098
:0448900064000000C0
:040000050800019955
:00000001FF
