:020000040800F2
:10000000A007002091010008990100089B01000849
:100010009D0100089F010008A101000800000000E8
:10002000000000000000000000000000A301000824
:10003000A501000800000000A7010008A9010008B0
:10004000AB010008AB010008AB010008AB010008E0
:10005000AB010008AB010008AB010008AB010008D0
:10006000AB010008AB010008AB010008AB010008C0
:10007000AB010008AB010008AB010008AB010008B0
:10008000AB010008AB010008AB010008AB010008A0
:10009000AB010008AB010008AB010008AB01000890
:1000A000AB010008AB010008AB010008AB01000880
:1000B000AB010008AB010008AB010008AB01000870
:1000C000AB010008AB010008AB010008AB01000860
:1000D000AB010008FF1C0008AB010008AB010008E1
:1000E000AB010008AB010008AB0100088B1B000846
:1000F000AB01000800F002F800F03AF80AA090E81E
:10010000000C82448344AAF10107DA4501D100F0D2
:100110002FF8AFF2090EBAE80F0013F0010F18BF65
:10012000FB1A43F0010318476821000088210000F2
:10013000103A24BF78C878C1FAD8520724BF30C813
:1001400030C144BF04680C607047000000230024E5
:1001500000250026103A28BF78C1FBD8520728BFD7
:1001600030C148BF0B6070471FB51FBD10B510BD33
:1001700001F099FE1146FFF7F7FF01F0E0FD01F0F5
:10018000B7FE03B4FFF7F2FF03BC01F0BBFE0000B3
:100190000948804709480047FEE7FEE7FEE7FEE71B
:1001A000FEE7FEE7FEE7FEE7FEE7FEE70448054957
:1001B000054A064B70470000CF020008F500000812
:1001C000A0010020A0070020A0030020A003002021
:1001D0000CB50020019000908648006840F00100B6
:1001E0008449086000BF8348006800F00200009066
:1001F0000198401C0190009818B90198B0F5A06FC3
:10020000F1D17C48006810F0020F02D0012000906C
:1002100001E0002000900098012857D1764800683E
:1002200040F00400744908600846006840F002008D
:1002300008600846006840F0010008606D482430FE
:10024000006840F080506B4924310860C8146B4945
:10025000086000BF6948406810F0100FFAD1654887
:100260000830006863490831086008460068086083
:100270000846006808600846006820F47D000860B1
:100280000846006840F4080008605A48006840F0DA
:1002900080705849086000BF5648006810F0007F21
:1002A000FAD054480830006820F003005149083162
:1002B00008600846006840F00300086000BF4D4831
:1002C0000830006800F00C000C28F8D10CBD10B507
:1002D0004848006840F48070464908604548083046
:1002E00000684749084043490831086041480068B0
:1002F000444908403F4908600846006820F48020CF
:1003000008603C480830006820F47D003949083115
:1003100008600020091D0860FFF75AFF4FF00060D9
:100320003949086010BD70B500220020002100246A
:100330000023304D08352D6805F00C0232B1042A37
:1003400010D0082A12D00C2A39D113E0294D2D1DC6
:100350002D68C5F342335D1C0126AE40F5032B4EDC
:10036000356038E02A4D294E356034E0294D274E5E
:10037000356030E01F4D08352D6805F470101D4DB7
:1003800008352D6805F44001234D05EB904528788C
:10039000012505EB9151174D08352D6805F4803482
:1003A00034B91B4D4543B5FBF1F5184E356005E0FA
:1003B000184D4543B5FBF1F5144E35600BE00D4D7E
:1003C0002D1D2D68C5F342335D1C0126AE40F5039B
:1003D0000E4E356000BF00BF064D08352D68C5F3D1
:1003E00003150E4E725D094D2D68D540074E3560E0
:1003F00070BD000000380240003C02400070004028
:100400000CC0FF88FEFFFEEE08ED00E000000020BB
:100410000024F40000127A00040000200D000020E7
:1004200000B587B00121084600F010FB01218803C8
:1004300000F01DFB07220921394800F060F907226E
:100440000A21374800F05BF902208DF808000320EC
:100450008DF8090000208DF80A0001208DF80B00AE
:100460004002019001A92E4800F0C0F84FF48060CE
:10047000019001A92A4800F0B9F84FF4E130039047
:100480000020ADF81000ADF81200ADF81400ADF882
:1004900018000C20ADF8160003A9224800F0EDFB6F
:1004A000012240F225511F4800F022FD25208DF841
:1004B000000000208DF801008DF8020001208DF869
:1004C0000300684600F097FD0121164800F05AFC31
:1004D00007B000BD70B504460D46E1B2114800F00A
:1004E0007CFC00BF40210F4800F027FD0028F9D018
:1004F000204670BD10B5044600BF8021094800F0B9
:100500001CFD0028F9D0E1B2064800F066FC00BFEF
:100510004021044800F011FD0028F9D0204610BD0C
:10052000000002400038014010B50446854884426E
:1005300008D10121084600F0BCFA0021012000F09A
:10054000B8FA52E08048844208D10121022000F02C
:10055000B0FA0021022000F0ACFA46E07B48844269
:1005600008D10121042000F0A4FA0021042000F0A9
:10057000A0FA3AE07648844208D10121082000F030
:1005800098FA0021082000F094FA2EE07148844285
:1005900008D10121102000F08CFA0021102000F079
:1005A00088FA22E06C48844208D10121402000F002
:1005B00080FA0021402000F07CFA16E0674884426F
:1005C00008D10121802000F074FA0021802000F081
:1005D00070FA0AE06248844207D10121202000F02D
:1005E00068FA0021202000F064FA10BDF0B50A4638
:1005F00000210023002400BF3DE0012505FA01F39E
:10060000156805EA03049C4234D105684F000326AF
:10061000BE40B543056015794E00B54006683543C8
:1006200005601579012D02D01579022D16D1856846
:100630004F000326BE40B543856055794E00B54056
:10064000866835438560858801268E40B543858060
:10065000858896798E40B6B235438580C5684F004F
:100660000326BE40B543C560D5794E00B540C66887
:100670003543C560491C1029BFD3F0BD4FF6FF714B
:1006800001600021017141718171C171704708B52C
:100690004FF480320092009A0A430092009AC2619D
:1006A000C161009AC261C2690092C269009208BD2C
:1006B00002460020138A0B4201D0012000E00020F6
:1006C00070470146088A704702460020938A0B4211
:1006D00001D0012000E0002070470146888A704761
:1006E00001837047418370470AB1018300E0418371
:1006F000704781827047828A4A4082827047F0B593
:10070000002300244D07ED0E02FA05F3CE1000F190
:10071000200555F826504E07F70E0F26BE40B5436C
:10072000CF1000F1200646F82750CE1000F120052A
:1007300055F8265045EA0304CE1000F1200545F88F
:100740002640F0BD000002400004024000080240C4
:10075000000C02400010024000180240001C024041
:1007600000140240F948006840F48070F7490860BE
:10077000F64808300068F6490840F4490831086036
:10078000F2480068F3490840F049086008460068EC
:1007900020F480200860ED480830006820F47D00D7
:1007A000EA49083108600020091D086070470021EF
:1007B000E64A921C117011460870704710B5014648
:1007C0000022002300204A11012A02D1DF4C2368B5
:1007D00002E0DE4C3434236801F01F02012494400F
:1007E0001C4201D0012000E0002010BD38B50020DF
:1007F00000900024002500BF3120FFF7DFFF0546F1
:100800000098401C00900098B0F5A06F01D0002D1A
:10081000F2D03120FFF7D2FF08B1012400E000241C
:10082000204638BDC949C91D0870704701460020DF
:10083000C64A121D106820F46040084310607047DB
:10084000C5490862704701460020C04A121D106861
:1008500020F4F85040EA012010607047BE4908605B
:1008600070470021B94A353211701146087070473F
:10087000BA490860704710B541EA02030343B34C1C
:100880000A34237010BDB44908667047B24908673E
:100890007047B2492C310860704740EA0102AB4B07
:1008A0000B331A70704701460020A84A08321068BE
:1008B00020F00300084310607047A4480830006827
:1008C00000F00C00704701460020A04A0832106872
:1008D00020F0F000084310607047014600209B4A5A
:1008E0000832106820F4E060084310607047014649
:1008F0000020964A0832106820F4605040EAC10097
:1009000010607047F0B5002100220023002600246B
:1009100000258E4F08373F6807F00C0131B10429DC
:1009200012D0082913D00C2937D113E0874F3F1D6F
:100930003F68C7F342356F1C4FF0010C0CFA07FCFF
:100940004FEACC37076036E0854F076033E0854FCC
:10095000076030E07D4F08373F6807F470127B4F27
:1009600008373F6807F440037F4F07EB92473A7818
:10097000012707EB9353754F08373F6807F480361C
:100980002EB9774F5743B7FBF3F7076004E0754F75
:100990005743B7FBF3F707600DE06C4F3F1D3F680F
:1009A000C7F342356F1C4FF0010C0CFA07FC4FEAFD
:1009B000CC37076000BF00BF644F08373F6807F0BF
:1009C000F0010909694F7C5C0768E74047605F4FA9
:1009D00008373F6807F4E061090A644F7C5C4768A8
:1009E000E7408760594F08373F6807F46051C90AEC
:1009F0005E4F7C5C4768E740C760F0BD002100F4B3
:100A00004032B2F5403F08D1504A116821F0C04150
:100A100000F0C04211434D4A11604C4A3432126812
:100A200022F44032494B34331A601A46126800F4FB
:100A300040331A43454B34331A60704747495831A5
:100A40000860704745495C310860704739B13F4ADA
:100A50001C32126802433D4B1C331A6006E03B4ACD
:100A60001C3212688243394B1C331A60704739B10B
:100A7000364A203212680243344B20331A6006E0B3
:100A8000324A203212688243304B20331A6070475A
:100A900039B12E4A2432126802432C4B24331A6097
:100AA00006E02A4A243212688243284B24331A6013
:100AB000704739B1254A103212680243234B103374
:100AC0001A6006E0214A1032126882431F4B10332D
:100AD0001A60704739B11D4A1432126802431B4B29
:100AE00014331A6006E0194A143212688243174B15
:100AF00014331A60704739B1144A1832126802432D
:100B0000124B18331A6006E0104A183212688243FA
:100B10000E4B18331A60704739B10C4A28321268EC
:100B200002430A4B28331A6006E0084A283212684A
:100B30008243064B28331A607047C9B1034A2C32EE
:100B400012680243014B2C331A6016E00038024051
:100B50000CC0FF88FEFFFEEE0000474280064742C1
:100B60000024F40000127A001D000020260000205E
:100B70001F4A126882431E4B1A60704739B11C4AE3
:100B8000121D126802431A4B1B1D1A6006E0184A18
:100B9000121D12688243164B1B1D1A60704739B133
:100BA000134A1F3A12780243114B1F3B1A7006E09A
:100BB0000F4A1F3A127882430D4B1F3B1A70704741
:100BC0000B480830006840F080700949083108601F
:100BD000704701460020064A203A12680A4201D0B6
:100BE000012000E00020704701491E39087070475D
:100BF0002C38024010B50446F748844209D101213F
:100C00008803FFF767FF00214FF48040FFF762FF82
:100C100032E0F248844209D101214804FFF76BFF1A
:100C200000214FF40030FFF766FF25E0EC488442D6
:100C300009D101218804FFF75EFF00214FF48020D5
:100C4000FFF759FF18E0E748844209D10121C804A1
:100C5000FFF751FF00214FF40020FFF74CFF0BE09E
:100C6000E148844208D101210805FFF744FF002133
:100C70004FF48010FFF73FFF10BD2DE9FF470546F9
:100C80000E460024A14600BFA046B08900B100BFB7
:100C90002C8A24F44054F08804432C82AC8941F21D
:100CA0000C608443B0883189084371890843044348
:100CB000AC81AC8A24F44074B0890443AC826846A9
:100CC000FFF720FEC448854202D1DDF80C9001E018
:100CD000DDF80890A88910F4004F08D009EBC9008E
:100CE00000EB091031684900B0FBF1F707E009EBB0
:100CF000C90000EB091031688900B0FBF1F76420EE
:100D0000B7FBF0F004012009642101FB1078A889E9
:100D100010F4004F08D0322000EBC800B0FBF1F017
:100D200000F00700044308E0322000EB08106421C3
:100D3000B0FBF1F000F00F0004432C81BDE8FF8709
:100D40004FF41651016000218180C18001810C2186
:100D5000418100218181704710B502460020108A30
:100D600020F470600B884C8823438C882343CC8804
:100D700023431843108210BD0021018041808180EF
:100D8000C180704721B1828942F40052828104E01F
:100D900082894DF6FF731A4082817047028B02F4FC
:100DA0007F420283028B0A430283704721B182890A
:100DB00042F40042828103E08289C2F30E02828102
:100DC000704721B1828A42F40062828204E0828A02
:100DD0004FF2FF731A4082827047C1F3080282808B
:100DE000704701468888C0F308007047028A4FF6B2
:100DF000F0731A400282028A0A430282704721B1CC
:100E0000828942F00202828104E082894FF6FD73FA
:100E10001A408281704782894FF2FF731A408281A3
:100E200082890A4382817047028A4FF6DF731A4033
:100E30000282028A0A430282704721B1028A42F486
:100E40008042028204E0028A4BF6FF731A4002825B
:100E50007047818941F001018181704721B1828A07
:100E600042F00802828204E0828A4FF6F7731A4049
:100E700082827047028BD2B20283028B42EA012245
:100E80000283704721B1828A42F02002828204E00C
:100E9000828A4FF6DF731A408282704721B1828ABC
:100EA00042F01002828204E0828A4FF6EF731A4009
:100EB00082827047828A4FF6FB731A408282828A4E
:100EC0000A438282704721B1828A42F00202828202
:100ED00004E0828A4FF6FD731A40828270471AB18D
:100EE000838A0B43838202E0838A8B438382704729
:100EF000F0B503460024002600250020A1F5106768
:100F00006A3F00D100BF1846C1F3421401F01F062A
:100F1000012707FA06F5012C01D10C3004E0022C60
:100F200001D1103000E014301AB107682F43076078
:100F300002E00768AF430760F0BD02460020B1F54C
:100F4000007F00D100BF13880B4201D0012000E0D8
:100F50000020704701F40072B2F5007F00D100BF9D
:100F6000CA430280704770B5024600240023002562
:100F70000020A1F510666A3E00D100BFC1F3421502
:100F800001F01F03012606FA03F3012D02D1968911
:100F9000334006E0022D02D1168A334001E0968AE2
:100FA00033400C12012606FA04F41688344013B1BB
:100FB0000CB1012000E0002070BD10B5002200231C
:100FC000A1F510646A3C00D100BF0A1201249440CC
:100FD000A3B2DC43048010BD00380140004400404F
:100FE00000480040004C004000500040334901439D
:100FF000334A1160704770B5002100230F22C47876
:1010000024B32F4C246804F4E064C4F5E064C4F312
:101010000721C1F10404E3B20A4144789C40E1B2E3
:101020008478144021430C07210E264C0578615525
:10103000047804F01F050124AC4005786D114FF0D1
:10104000E02606EB8505C5F8004109E0047804F0C8
:101050001F040125A5401C4C0678761144F8265043
:1010600070BD1A4A0A400243154B1B1F1A60704795
:1010700039B1134A121D12680243114B1B1D1A602D
:1010800006E00F4A121D126882430D4B1B1D1A60A9
:101090007047042808D14FF0E021096941F00401AC
:1010A0004FF0E022116107E04FF0E021096921F0E3
:1010B00004014FF0E0221161704700000000FA05C2
:1010C0000CED00E000E400E080E100E080FFFF1FA5
:1010D00010B50446B4F1804F08D101210846FFF74E
:1010E0000AFD00210120FFF706FD5EE0FB48844277
:1010F00008D101210220FFF7FEFC00210220FFF7AA
:10110000FAFC52E0F648844208D101210420FFF79E
:10111000F2FC00210420FFF7EEFC46E0F148844297
:1011200008D101210820FFF7E6FC00210820FFF785
:10113000E2FC3AE0EC48844208D101211020FFF79C
:10114000DAFC00211020FFF7D6FC2EE0E7488442AD
:1011500008D101212020FFF7CEFC00212020FFF73D
:10116000CAFC22E0E248844208D101210420FFF7B2
:10117000B1FC00210420FFF7ADFC16E0DD488442FD
:1011800008D101210820FFF7A5FC00210820FFF766
:10119000A1FC0AE0D848844207D101211020FFF7C2
:1011A00099FC00211020FFF795FC10BD0022028859
:1011B000B0F1804F08D0C94B984205D0C84B984237
:1011C00002D0C84B984204D14FF68F731A404B8817
:1011D0001A43C54B984207D0C44B984204D04FF6EF
:1011E000FF431A400B891A4302804B68C3620B8885
:1011F00003850123838270474FF0FF314160002156
:1012000001800181418070470185828270470A46D2
:10121000002101884FF68F731940114301807047F8
:1012200041627047C16270470146486A7047014693
:10123000088D704721B1028842F00202028004E06A
:1012400002884FF6FD731A400280704721B1028870
:1012500042F00402028004E002884FF6FB731A4059
:101260000280704721B1028842F08002028004E0CF
:1012700002884FF67F731A400280704702884FF64B
:10128000F7731A40028002880A430280704702887E
:101290004FF6FF431A40028002880A4302807047DB
:1012A00021B1028842F00102028004E002884FF678
:1012B000FE731A400280704730B500230022048C70
:1012C0004FF6FE752C400484028C038B4FF68F740E
:1012D0002340AC1E23400C8823436C1E22400C8903
:1012E00022434C8822434C6844630383028430BD0C
:1012F00030B500230022048C4FF6EF752C40048497
:10130000028C038B48F6FF7423400C884FF6FF7560
:1013100005EA042423434FF6DF7422400C8905EAD2
:10132000041422434C8805EA041422434C68846365
:101330000383028430BD30B500230022048C4FF6B5
:10134000FF652C400484028C838B4FF68F742340FE
:101350000C8823434FF6FF5422400C894FF6FF754B
:1013600005EA042422434C8805EA042422434C68FD
:10137000C4638383028430BD30B500230022048C13
:101380004EF6FF752C400484028C838B48F6FF7464
:1013900023400C884FF6FF7505EA042423434DF6DD
:1013A000FF7422400C8905EA043422434C8805EA84
:1013B000043422434C6804648383028430BD0021DA
:1013C0000180418041600181704770B50346002073
:1013D00000241846183001258D40ACB21D8CA54361
:1013E0001D8409B1082909D100EB6100056825F0C9
:1013F000700505600568154305600EE00D1FC5F317
:101400004E052844056825F4E045056005684FF65B
:10141000FF7606EA02263543056070BD41637047DA
:1014200081637047C1637047016470470A460021B9
:10143000018B4FF68F7319401143018370470A46A1
:101440000021018B48F6FF7319404FF6FF7303EA42
:1014500002231943018370470A460021818B4FF60E
:101460008F7319401143818370470A460021818B95
:1014700048F6FF7319404FF6FF7303EA022319433E
:10148000818370470A460021018B4FF6F77319409C
:101490001143018370470A460021018B4FF2FF730D
:1014A00019404FF6FF7303EA022319430183704783
:1014B0000A460021818B4FF6F7731940114381834F
:1014C00070470A460021818B4FF2FF7319404FF697
:1014D000FF7303EA0223194381837047000400402D
:1014E00000080040000C00400010004000140040C4
:1014F00000080140000C0140001001400A46002194
:10150000018B4FF6FB7319401143018370470A4664
:101510000021018B4FF6FF3319404FF6FF7303EAAA
:1015200002231943018370470A460021818B4FF63D
:10153000FB7319401143818370470A460021818B58
:101540004FF6FF3319404FF6FF7303EA02231943A6
:10155000818370470A460021018B4FF67F73194043
:101560001143018370470A460021018BC1F30E012C
:101570004FF6FF7303EA02231943018370470A46BB
:101580000021818B4FF67F7319401143818370478F
:101590000A460021818BC1F30E014FF6FF7303EA67
:1015A00002231943818370470A460021018C4FF6BC
:1015B000FD7319401143018470470A460021018CD4
:1015C0004FF6DF7319404FF6FF7303EA0213194316
:1015D000018470470A460021018C4FF6FF531940E1
:1015E0004FF6FF7303EA02231943018470470A464A
:1015F0000021018C4DF6FF7319404FF6FF7303EA8B
:10160000023319430184704702894FF6F7731A4079
:10161000028102890A430281704730B50023012408
:101620008C40A3B2048C9C430484048C02FA01F520
:10163000ADB22C43048430BD828B4FF2FF331A408D
:101640008283828B4FF6FF7303EA01231A4382835E
:101650007047F0B50C461546002100220026078C85
:101660004EF6FF7C07EA0C070784818B028C4FF64D
:10167000FF7707EA043640F6FF4739404FF6FF7719
:1016800007EA052739434FF6FF7707EA033739435F
:1016900045F6FF773A4046F480573A438183028407
:1016A000F0BD828B4FF6F3731A408283828B0A431C
:1016B00082837047F0B50C461546002100220026B3
:1016C000078C4FF6FF6C07EA0C070784818B028CAE
:1016D0004FF6FF7707EA04264FF60C7739404FF6AE
:1016E000FF7707EA03172F4339434FF2FF573A407A
:1016F00046F480773A4381830284F0BD028B4FF237
:10170000FF331A400283028B4FF6FF7303EA012373
:101710001A4302837047F0B50C461546002100229B
:101720000026078C4FF6EF7C07EA0C070784018B35
:10173000028C4FF6FF7707EA041640F6FF47394060
:101740004FF6FF7707EA033739434FF6FF7707EA8B
:10175000052739434FF65F773A4046F010073A4382
:1017600001830284F0BD028B4FF6F3731A400283AB
:10177000028B0A4302837047F0B50C4615460021E0
:101780000022068C4FF6FE773E400684018B028CC9
:101790004FF60C7631407E1C06EA03162E43314389
:1017A0004FF6F576324044F001063243018302845D
:1017B000F0BD70B505460C46208850B92389A28833
:1017C00061882846FFF7D8FFE1882846FFF7CBFF5E
:1017D00025E0208804280AD12389A2886188284628
:1017E000FFF799FFE1882846FFF788FF17E0208878
:1017F00008280AD12389A28861882846FFF75AFF62
:10180000E1882846FFF74DFF09E02389A288618817
:101810002846FFF71EFFE1882846FFF70DFF70BD41
:10182000002101804180012181800021C18001814E
:1018300070472DE9F04105460C46002601276088D7
:1018400008B9022600E00026A088012801D102275D
:1018500000E001272088A0B92389A2886188284652
:10186000FFF78AFFE1882846FFF77DFF23893A4684
:1018700031462846FFF74FFFE1882846FFF73EFF35
:1018800013E02389A28861882846FFF744FFE18896
:101890002846FFF733FF23893A4631462846FFF7AB
:1018A0006BFFE1882846FFF75EFFBDE8F081014647
:1018B000486B70470146886B70470146C86B70479C
:1018C0000146086C70471AB183890B43838102E09B
:1018D00083898B4383817047818270470246002051
:1018E000138A0B4201D0012000E000207047CA4358
:1018F0000282704730B50246002000230024158A7A
:1019000005EA0103958905EA010413B10CB1012030
:1019100000E0002030BDCA430282704741EA020362
:10192000A0F8483070471AB183890B43838102E0E5
:1019300083898B438381704721B1828842F00802FA
:10194000828004E082884FF6F7731A4082807047E5
:1019500001894FF6F8721140018170470A46002153
:1019600001894FF68F73194011430181704730B5DB
:1019700004460D4629462046FFF7F0FF208940F037
:101980000700208130BD2DE9F04104460D46164682
:101990001F46602D06D13B46012231462046FFF707
:1019A000BAFE05E03B46012231462046FFF7E4FE41
:1019B00029462046FFF7D2FF208940F0070020810A
:1019C000BDE8F08130B50C4600210189C9B24FF65F
:1019D000FF7505EA0325154325432943018130BDE1
:1019E0002DE9F04105460E46174698460024434629
:1019F0003A4631462846FFF7E5FF2C894FF6F87046
:101A0000044044F007044FF68F70044044F0700423
:101A10002C81BDE8F081F0B504460D4616461F4600
:101A20003B46324629462046FFF7CCFF208940F44A
:101A300080402081F0BD82884FF68F731A408280EB
:101A400082880A438280704702894FF6F8731A40F1
:101A5000028102890A430281704702894FF67F732F
:101A60001A40028102890A4302817047F0B50C4690
:101A700015461E460021002200230189028B038C9B
:101A80004FF6F877394021434FF6FC473A4040F291
:101A900001173A434FF6DD773B404FF6FF7707EAF1
:101AA00006172F433B43018102830384F0BD21B11C
:101AB000828842F08002828004E082884FF67F7341
:101AC0001A408280704730F8502F02EA114202809B
:101AD00002888BB21A4320F8502970471CB50121A7
:101AE0000846FEF7B3FF01208DF804008DF80500CD
:101AF0003F20009069461848FEF778FD1CBD1FB5D1
:101B00002B208DF80C0000208DF80D0001208DF8A1
:101B10000E008DF80F0003A8FFF76DFA01211020C9
:101B2000FEF7B6FF0020ADF80000ADF8020040F26D
:101B3000411001900020ADF8080069460748FFF702
:101B400035FB01210548FFF7ABFB01221146034895
:101B5000FFF7B9FE1FBD000000000240001000406A
:101B600070B50446002503E0605DFEF7C3FC6D1C04
:101B7000605D0028F8D170BDAE4A116800BF421800
:101B8000AC4B1B689A42FADC704710B5AA48006853
:101B9000401CA9490860A7480068401CA549086086
:101BA000A6480068401CA5490860A5480068401C7C
:101BB000A3490860A3480068401CA2490860A248E5
:101BC0000068401CA0490860A0480068401C9F496C
:101BD00008609F480068401C9D490860964800685E
:101BE0009C49884202D901209B49086093480068BB
:101BF000B0F5FA6F06DB0020904908600121974894
:101C0000FEF770FD8D48006895490968884203DD3C
:101C100001219248FEF764FD89480068B0F5FA6F2B
:101C200006DB00208649086002218C48FEF75AFD39
:101C3000834800688B490968884203DD0221874890
:101C4000FEF74EFD7F480068B0F5FA6F06DB002016
:101C50007C49086004218148FEF744FD794800680A
:101C600081490968884203DD04217C48FEF738FD7C
:101C700075480068B0F5FA6F06DB0020724908600D
:101C800008217648FEF72EFD6F48006877490968FD
:101C9000884203DD08217148FEF722FD6B48006889
:101CA000B0F5FA6F06DB00206849086010216B4828
:101CB000FEF718FD654800686D490968884203DD34
:101CC00010216648FEF70CFD61480068B0F5FA6F18
:101CD00006DB00205E49086020216048FEF702FD17
:101CE0005B48006863490968884203DD20215B483E
:101CF000FEF7F6FC01216048FFF7F9FD10BD10B5B5
:101D000040F225515D48FFF72EF9B8B15B49091D36
:101D10000988C8B265280DD059490978C82909DA57
:101D20005849574A1278885455490978491C544AE9
:101D3000117002E00021524A117000BF10BDFFF780
:101D4000CDFEFFF7DCFEFEF76BFB4FA0FFF708FFB1
:101D50006EE00A20FFF710FF4A49487800F0B8F912
:101D600006464D4900F0C8F905464C4900F0D2F846
:101D7000044600F091F93C303949086041498878BF
:101D800000F0A6F90646444900F0B6F90546434975
:101D900000F0C0F8044600F07FF93C30314908609B
:101DA0003849C87800F094F906463B4900F0A4F998
:101DB00005463A4900F0AEF8044600F06DF93C30B3
:101DC000294908602F49087900F082F9064632490E
:101DD00000F092F90546314900F09CF8044600F005
:101DE0005BF93C30214908602649487900F070F9D8
:101DF0000646294900F080F90546284900F08AF88E
:101E0000044600F049F93C30194908601D4908783A
:101E100000F05EF90646204900F06EF905461F49BC
:101E200000F078F8044600F037F93C3011490860BA
:101E30008FE70000380000204000002060000020F4
:101E400064000020680000206C000020700000206A
:101E50007400002020A107003C0000200000024088
:101E600044000020480000204C00002050000020CA
:101E700054000020580000200010004000380140AD
:101E80005C0000207800002057656C6C6F20776F35
:101E9000726C642121000000000030430000C84241
:101EA000704770477047754600F028F8AE46050049
:101EB0006946534620F00700854618B020B5FEF766
:101EC00075F9BDE820404FF000064FF000074FF0D5
:101ED00000084FF0000B21F00701AC46ACE8C00948
:101EE000ACE8C009ACE8C009ACE8C0098D46704751
:101EF0000446AFF300802046FEF743F900487047E0
:101F00004001002001491820ABBEFEE72600020078
:101F1000704700004FF47F0C1CEAD0121EBF1CEA71
:101F2000D11392EA0C0F93EA0C0F00F0858090EA2F
:101F3000010F48BF42F4807240F4000C41F40000ED
:101F40002CF07F4120F07F4000B58142A2EB0302DC
:101F50000FF2081CACEB504EC0F100009EF800E000
:101F60004FEA4E0E00FB0EFC38BF49004FEA2C1C16
:101F700002F5FA020CFB0EF34FEACE1E4FEA112CCB
:101F80004FEAC1210EEB635E42EB22420EFB0CFCDA
:101F90004FEA1C5300FB03114FEA112C4FEA0131A9
:101FA0000EFB0CFC4FEADC4C00FB0C11C14228BFBD
:101FB00009184CEB03335DF804EB10EB410143EBE4
:101FC000C250B2F57C0F38BF704729D512F0F00F20
:101FD0001CBF00F1C04000F00040704700818283C8
:101FE0008485868788898B8C8D8E8F919293959628
:101FF00097999A9C9D9FA0A2A3A5A7A8AAACAEB0B2
:10200000B2B3B5B7B9BCBEC0C2C5C7C9CCCED1D4B6
:10201000D7D9DCDFE2E6E9ECF0F3F7FAFE000000E6
:102020004FEA400C0CF1807CBCF17E4F28BF70471A
:10203000B0F1C04000F027B990EA010F0CEAD113CB
:1020400048BF42F48072624538BF634507D213F43B
:102050007F0F16D080EA010000F00040704710B5F5
:1020600000F0CBF8097EFC3E00F005B880EA0100E4
:1020700000F00040704780EA010000F0004000F0EE
:1020800002B912F47F0F04BF0248704780EA0100D2
:1020900000F0F9B80000C07F41000B0ED3F19E02A2
:1020A00008D950F400034FEA032323FA02F048BF93
:1020B0004042704710B500F0A0F800BF499224805C
:1020C000002070476FF0004282EA20007047000055
:1020D000B0FA80F310FA03F2C3F19D030AD0D905D8
:1020E00001EB1220530638BF704700F1010008BF12
:1020F00020F00100704700004FF47F0C1CEAD01262
:102100001EBF1CEAD11392EA0C0F93EA0C0F00F0E9
:10211000478090EA010F48BF42F480724FF0004CB4
:102120004CEA00204CEA012102EB0302A0FB011360
:10213000A2F50002002918BF43F001035B0028BF8D
:102140004FEA330342EB22425FEA132C4CEBC250BE
:102150002EBFBCEB436FB2F57C0F70474FEA036CA8
:10216000BCF1004F08BF20F00100B2F57C0F38BF72
:1021700070470BD582F0FF0212F5803FC8BF704751
:1021800000F1C040D8BF00F00040704700F5000CDF
:102190005FEA4C0C48BF7047B0F1C04000F073B824
:1021A00090EA010F0CEAD11348BF42F480726245F5
:1021B00038BF634504D280EA010000F00040704758
:1021C00010B500F01AF800BF8900013E00F007B812
:1021D00000F009B85FEA410C5FEA1C6C08D080EAA5
:1021E000010000F050B85FEA400C5FEA1C6CF6D1C9
:1021F0004FF00040A0F5800070470EF1020E2EF067
:10220000030E5EF8044B244204D44FEA4102B2F1BB
:102210007F4F11D84FEA4003B3F17F4F0CD80ED156
:102220004FEAD07CB2F17F4F0CEB4C0C0CF1020C5E
:1022300008BF4CEBD17C04E04FF0080C01E04FEA02
:10224000D17C0CEB4C0324FA03F404F00704B4F142
:10225000040C06D20EEB840CBDE810404CF0010CCF
:102260006047DFE80CF0070802024FF00040A0F5DD
:10227000800010BD0846420018BFD2F1807288BFAE
:1022800000F0004010BDFF2141EAD050C00570476A
:10229000B022000800000020780000003001000893
:1022A0002823000878000020280700004C010008BF
:1022B0000048E801030406080C1018203000000054
:1022C00000000000000102030406070809030406D9
:1022D000080C101820300000000001020304010265
:1022E00003040607080900000000000000000000C9
:1022F00000000000640000006400000064000000B2
:1023000064000000640000006400000000000000A1
:1023100000000000000000000000000000000000BD
:082320000000000000000000B5
:04000005080001915D
:00000001FF
